:020000040800F2
:1000000000100020010A00084B0A00084D0A0008F1
:1000100000000000000000000000000000000000E0
:100020000000000000000000000000004F0A00086F
:100030000000000000000000510A0008530A0008F8
:10004000570A0008590A00085B0A00085D0A000800
:100050005F0A0008610A0008630A0008650A0008D0
:10006000670A0008690A00086B0A00086D0A0008A0
:100070006F0A0008710A0008730A0008750A000870
:10008000770A0008790A00087B0A00087D0A000840
:100090007F0A0008810A0008830A0008850A000810
:1000A000870A0008890A00088B0A00088D0A0008E0
:1000B0008F0A0008910A0008930A0008950A0008B0
:1000C000970A000810B5064C2378002B07D1054B82
:1000D000002B02D0044800E000BF0123237010BDB4
:1000E000B8000020000000006C780008084B10B534
:1000F000002B03D00749084800E000BF0748036809
:10010000002B00D110BD064B002BFBD09847F9E720
:1001100000000000BC0000206C780008B80000203F
:1001200000000000164B002B00D1144B9D464022CE
:1001300092029A1A924600218B460F461348144A9F
:10014000121A00F071FE0F4B002B00D098470E4B97
:10015000002B00D098470020002104000D000D481E
:10016000002802D00C4800E000BF00F037FE20005D
:10017000290000F0A5F800F093FCC046000008003C
:10018000001000200000000000000000B800002067
:10019000000C00200000000000000000F0B55646F2
:1001A0004D4644465F46F0B4304B814699689846C8
:1001B0002F4B304E1B6885B09C460023614449425A
:1001C00009020A0A2A490868496812184B41284955
:1001D0005E430A604B60494610098E1BC01803211C
:1001E00004F060FC361A002E38DD234A7342536255
:1001F000012313801E4B013E1868596800239B465B
:100200001E4B009001919A46C0235B0099468023C3
:100210001B03360C03935B461382138A49465346ED
:100220000398585020BF138A002BFBD043460098F8
:100230000199844600259B6863445B421B021C0AAB
:100240000019694100900191013EE4D203000C00C5
:10025000074A136054600022074B1A8005B03CBC6B
:1002600090469946A246AB46F0BDC04610E000E07D
:10027000A8050020555555050020004000E100E08C
:1002800070B50C4A002511680B4B8C4610685168FC
:100290009B6863445B421B021C0A24184D412009E1
:1002A000146055604019032104F0FCFB034B6B43C1
:1002B000C01870BDA805002010E000E05555550598
:1002C000F8B55F4656464D464446EE4BEE4AF0B40E
:1002D0005A6000260522ED4C9E601A60E369FB32ED
:1002E0001343E361EA4B9446D13A1E801A85E94AEA
:1002F0001021DA620122E8489A82056929430161E6
:100300000721E64D9A812B68E5488B4380211343F2
:100310002B60636989020B4363618021902389000C
:10032000DB05996180211F68C90207400F431F60E8
:100330009F88DC49394099809968802701409960FD
:10034000D968BF030840D860596AD7480140604661
:10035000014359621868D549084038431860D86885
:100360000140802040030143D9608021A369C90175
:100370000B433021A361CE4BCE4899819E605E60D5
:10038000802628391960A169F6001143A1616169CD
:1003900011436161A1691143A161016831430160A9
:1003A0000421186801431960402198680143202006
:1003B0009960C1494860C1488860C148C860C14867
:1003C000086019680A200A431A6006F019FCBE4B3F
:1003D000BE4ABF4912681B680968BE4806F0F6FBB2
:1003E000BD4BBE48198806F0F1FB0A2006F008FC58
:1003F0002168BB4806F0EAFB6168BA4806F0E6FBF4
:10040000616AB94806F0E2FB2968B84806F0DEFBED
:100410000C2263681340082B00D1CCE10C2B00D1D7
:10042000C7E1B34C2000994AB24953681B061B0F21
:10043000CB5CD8400700536880465B055B0FCB5C04
:10044000DF40136BDB0500D4AFE15368BE085B04EB
:1004500000D4ACE18D4B1A6B1A6B0322196B0A4264
:1004600008D0196B1140012904D0196B0A40022AE7
:1004700000D01B6BC023854A9B02116B19420CD024
:100480008020116B40021940814206D0116B0B4055
:10049000802189028B4200D0136B7C4D0A202B6B8C
:1004A00006F0AEFB2100944806F090FB41469348CD
:1004B00006F08CFB3900924806F088FB3100914829
:1004C00006F084FB0A2006F09BFBC0226B69D20277
:1004D00013436B6190230C2104240220DB051A686E
:1004E0008A4322431A609A8882439A809A688A4390
:1004F0009A60DA688A43DA601A6824318A43100005
:10050000102202431A609A88A2439A809A688A430A
:100510009A60DA688A43DA601A6890318A43100078
:100520004022024308201A609A888243C0209A80A1
:100530009A6880018A439A60DA688A43DA601A68A6
:1005400071490A4002431A60DA681140D96080217B
:10055000AA6989000A43AA61EB680B43EB60EA6869
:10056000504B6A491340EB600023CB608023DB05CE
:100570000B6180231B068B608A68644B002AFBDBBF
:10058000012201219A601A68604C1142FBD01023AD
:10059000414A5F4F1169BA460B431361902204230D
:1005A000D205636093615B4B00269B465A4B042542
:1005B00099465A4B9846FFF763FE5B469851C83000
:1005C000FFF7ECFDFFF75CFE4B4698514023A3621A
:1005D00000236361A560256023688021C023504A01
:1005E00049015B00D15020BF23681D42FBD0474B1F
:1005F0001B6C3B80FFF744FE43469851C8230436EA
:1006000002379B009E42D6D190220423D205138547
:10061000043357469A46130052469A61414A0025D0
:100620001168184B8C46106851689B6863445B42A4
:100630001B021C0A24184D41B62078216843E309A7
:1006400014605560FF31C01804F02CFAFA22D20071
:100650009446FA24344BA4006B436344C0184443CB
:100660002000FFF79BFD90235246DB051A852F489B
:1006700006F03CFB90220223D20593612C4B00250F
:100680009A4657E010E000E0FFFFFF000010024034
:1006900000200040FFFF000000ED00E000200240CD
:1006A000FFFFF3FFFFFDFFFFFFF0FFFFFFFFCFFFA7
:1006B0000038014000000140580002402438014049
:1006C000F4030020A1100000ACF7FF1FB0F7FF1FDC
:1006D000B4F7FF1FD8720008CCF7FF1FF0720008B4
:1006E00004730008187300082C7300084073000896
:1006F00000127A0000000020547300087073000894
:100700008C730008A8730008FFCFFFFF002401408E
:1007100014040020D4000020B0050020D0080020E0
:1007200000E100E0A8050020865D0100C473000818
:10073000E09304003B00A244574600249A464346F7
:100740005A461B5912592748991A06F03FFA434650
:100750004A461B5912592448991AC9B26D1806F015
:1007600035FA53462148198806F030FA3800FFF769
:1007700015FD02239C461E4BE2449C460434ADB258
:100780006744B442DBD11B4806F0B0FA29001A488E
:1007900006F01CFA90230222DB0500201A853CBCDF
:1007A00090469946A246AB46F8BD144E52E67E08E6
:1007B00050E6134C36E60F23C02265686168AD0C25
:1007C0001D4052020235114202D10E4C6C4329E603
:1007D000E16A0D480B40591C04F064F92C004443B5
:1007E00020E6C0461474000828740008407400080D
:1007F000E093040050740008B8740008809FD5008E
:10080000006CDC0200093D0000127A00902330B534
:10081000F0248025DB05586A2D03A043E03C2043EB
:1008200058621C682A4804402C431C609D88294C4F
:100830002C409C809C68402504409C60DC682040E3
:100840008024D8602448A4000368234303608020E8
:10085000224B9C6820439860214C22488460C160F0
:1008600021494260016040201968802401431960D9
:10087000C02118621D48490024054450190020BFBA
:10088000CB69164C1D42FAD04021236880208B434F
:1008900000212360134BC0021960A36880318B4391
:1008A000A36090238131DB05FF3199611C68084901
:1008B0000C4004431C609C8806482040988098683F
:1008C00008409860D8680140D960100030BDC0462B
:1008D000FFFFF3FFFFFDFFFF000001400038014074
:1008E00028380140440002409110000000E100E07F
:1008F00001213B4B82B01A680A431A605868394A92
:1009000002405A601868384A02401A601868374A2C
:1009100002401A605868364A02400F205A60DA6A6C
:100920008243DA62186B334A02401A635A6BA02082
:100930008A435A63002280219A60009201921A68C9
:1009400049020A4380211A6089021A00C00102E0AC
:10095000009B834208D013680B400193009B013336
:100960000093019B002BF3D01D4B1A6880239B0240
:10097000134006D001230193019B012B05D002B047
:1009800070470193019B012BF9D111221A4B802052
:100990001A60134A80045368536053685360516867
:1009A000164B0B4088215360536849030B43802149
:1009B0005360136849040B4313601168084B0142EC
:1009C000FBD003215A688A435A60022259680A43BD
:1009D0005A600C211A0053680B40082BFBD1CEE75C
:1009E000001002400CB8FFF8FFFFF6FEFFFFFBFF10
:1009F000FFFFC0FFACFEFFFF00200240FF7FC0FFF3
:100A00000749084A084B9B1A05DD00240859105174
:100A100004349C42FADB0548804705480047000043
:100A20007878000800000020B8000020F1080008D5
:100A3000250100081849194A002301E00B60043120
:100A40009142FBD3FFF73CFCFEE7FEE7FEE7FEE743
:100A5000FEE7FEE7FEE7FEE7FEE7FEE7FEE7FEE76E
:100A6000FEE7FEE7FEE7FEE7FEE7FEE7FEE7FEE75E
:100A7000FEE7FEE7FEE7FEE7FEE7FEE7FEE7FEE74E
:100A8000FEE7FEE7FEE7FEE7FEE7FEE7FEE7FEE73E
:100A9000FEE7FEE7FEE7FEE7B8000020000C0020BE
:100AA000084B10B50400002B02D0002100E000BF6D
:100AB000054B1868836A002B00D09847200006F089
:100AC00083F8C0460000000030750008F7B58A8939
:100AD00005000C0013075AD44B68002B02DC0B6C8A
:100AE000002B19DDE76A002F16D000232E682B603B
:100AF00080235B011A4001D0606D14E00123216A5C
:100B00002800B847431C0ED12B68002B0BD01D2B9F
:100B100001D0162B02D12E6000205AE04022A3897A
:100B20001343A38155E0A3895B0706D56368C01A08
:100B3000636B002B01D0236CC01A00230200216AD2
:100B40002800E76AB847A389421C06D129681D29F5
:100B50003AD8204ACA40D20736D5002262602269BC
:100B60002260DB0405D5431C02D12B68002B00D189
:100B70006065616B2E600029CED02300443399421A
:100B800002D0280000F058F90020606321E00F69CE
:100B9000002FC1D00B680F60DB1B0193002392076D
:100BA00000D14B69A36003E0019B3F181B1A01931E
:100BB000019B002BB0DD019B3A00216A2800A66A48
:100BC000B0470028F0DCA389402201201343A38111
:100BD0004042FEBD010040200B6970B505000C00CD
:100BE000002B01D100201CE0002804D08369002BD9
:100BF00001D100F05FF80B4B9C4201D16C6808E01A
:100C0000094B9C4201D1AC6803E0084B9C4200D1E7
:100C1000EC680C22A35E002BE4D021002800FFF733
:100C200055FF70BDCC740008EC7400080C7500080A
:100C300010B5024900F0B0F810BDC046D90B00084D
:100C4000002310B504000360436083608181436624
:100C5000C281036143618361190008225C3000F0A6
:100C6000E3F8054B24626362044BA362044BE36226
:100C7000044B236310BDC046DD1C0008051D0008A1
:100C80003D1D0008691D000870B568254B1E5D43B9
:100C90000E002900743100F01BF9041E08D0002159
:100CA0002A00016046600C30A060683200F0BCF899
:100CB000200070BD836913B50400002B28D1836424
:100CC000C3640365134B144A1B6882620193984204
:100CD00001D101238361200000F020F86060200032
:100CE00000F01CF8A060200000F018F80022E0607E
:100CF00004216068FFF7A4FF01220921A068FFF723
:100D00009FFF02221221E068FFF79AFF0123A361EF
:100D100013BDC04630750008310C0008F8B51D4BF6
:100D200006001D68AB69002B02D12800FFF7C2FF47
:100D30004835AC686B68013B05D40C22A75E002FD8
:100D400010D06834F7E72B68002B01D02D68F0E74E
:100D500004213000FFF798FF28600028F6D10C230B
:100D6000336016E0012320005B42E3810233A3815C
:100D700067662760A760676027616761A7615C306D
:100D80000822390000F050F820006763A763A764C9
:100D9000E764F8BD30750008F7B5040007000026C9
:100DA00001914834002C16D06368A5680093009B1D
:100DB000013B00930DD4AB89012B08D90E22AB5E09
:100DC000013304D029003800019B98470643683559
:100DD000EDE72468E6E73000FEBD00000E4B70B57D
:100DE00000251E000D4CE41AA410A54204D0AB004F
:100DF000F35898470135F8E706F062FA084B0025EA
:100E00001E00084CE41AA410A54204D0AB00F3580D
:100E100098470135F8E770BDB0000020B000002011
:100E2000B0000020B400002003008218934202D0DA
:100E300019700133FAE7704770B50500002944D0F6
:100E40000C1F2368002B00DAE418280003F04CF88C
:100E50001E4A13681100002B02D16360146031E058
:100E6000A3420DD92268A018834203D118685B6899
:100E70008218226063600C6024E0A24203D8130051
:100E80005A68002AF9D11E689819A0420BD121682E
:100E9000711858181960824214D1106852684118AC
:100EA00019605A600EE0A04202D90C232B6009E0C1
:100EB00021686018824203D110685268411821608D
:100EC00062605C60280003F010F870BDF40B002035
:100ED000032370B5CD1C9D43083506000C2D01D2AF
:100EE0000C2501E0002D01DBA94202D90C2333605F
:100EF00048E0300002F0F8FF234B1C681A00210084
:100F0000002913D00B685B1B0DD40B2B02D90B608F
:100F1000CC181EE08C4202D1636813601AE04B6863
:100F200063600C0016E00C004968E9E7174C236881
:100F3000002B03D1300000F099FE20602900300022
:100F400000F094FE431C18D00323C41C9C43A04211
:100F50000DD12560300002F0C8FF200007220B30C1
:100F6000231D9043C31A0ED05A42E2500BE0211ABF
:100F7000300000F07BFE431CEBD10C2330003360CB
:100F800002F0B3FF002070BDF40B0020F00B002036
:100F9000F0B58BB014001D1E129906DA80242406C9
:100FA0001B191D0014002D2300E000230B702023CB
:100FB000149E03229E43462E07D03300453B5942E0
:100FC0004B411099013ACB18109309AB049308AB2D
:100FD0000393139B00920293109B220001932B001A
:100FE00001F056FE0700472E02D1119BDB072DD5DD
:100FF000109BFB180793462E14D13B78302B0CD155
:10100000002200232000290003F0D2FE002804D192
:101010000123109A9B1A139A1360139B079A1B685B
:10102000D3180793002200232000290003F0C0FEFC
:101030003022002802D0079B099307E0099B0799FB
:10104000994203D9591C09911A70F7E73800099B96
:10105000159ADB1B13600BB0F0BDF7B52B2307000F
:101060000C000270861C002901DA2D234C427B7093
:10107000092C1CDD6B46DD1D20000A2103F082FED9
:10108000013D3031297020000A2103F095FD040054
:101090000928F1DC013D30342C706B4607333000F9
:1010A000AB4209D92B78013533700136F5E730238F
:1010B000E4183370B01C7470C01BFEBDF0B595B061
:1010C0000C000A920B931A9D099002F0D7FE036858
:1010D00018000D9300F04EFE0023129323680E902B
:1010E0000C930C99277E2B680722C90501D59B1804
:1010F00000E0073393431A0008322A601A685B68DD
:10110000A264E3640122E56CA66C6B005B080F939C
:101110005242C04B30000F9905F0B4FB002819D1A2
:101120000122BC4B524230000F9903F051FE0028BF
:1011300010D1002200233000290003F03FFE0028D8
:1011400003D023002D2243331A70B34D472F0ED8FE
:10115000B24D0CE032002B003000290005F092FB6C
:10116000002800D19AE1AE4D472F00D8AD4D0323A2
:101170000C9A236101339A432260002642E0672FD4
:1011800000D193E1472F00D190E10C9A0021134345
:1011900012AA059211AA03922322236006910193B9
:1011A00008A9636852180292009332002B0004973A
:1011B0000998FFF7EDFE20233A0005009A43472ADD
:1011C00000D18EE11199652F00D996E120000139F7
:1011D0003A0050301191FFF740FF129A0600831831
:1011E0002361012A00DD85E12268D20700D581E173
:1011F000232308AA9B181B78002B03D023002D2241
:1012000043331A700B9B13AA009321000A9B099881
:1012100000F0A4F9431C02D1012040429BE1226866
:10122000530501D4236964E0652F00D8CCE0A06C9D
:10123000E16C0022002303F0BBFD00282CD0012329
:10124000794A0A9909980B9DA847431CE4D0119B41
:10125000129A934208DB2368DB0705D42368002534
:101260009B0700D50FE113E10B9D0E9B0D9A0A9988
:101270000998A8470025431CCED0129B013B9D42F4
:10128000ECDA220001231A320A9909980B9EB04722
:10129000431CC1D00135F0E7119B002B2BDC01234F
:1012A000614A0A9909980B9EB047431CB4D0119B20
:1012B000002B05D1129B002B02D12368DB07CDD573
:1012C0000B9E0E9B0D9A0A990998B0470026431C65
:1012D000A2D0119B5B429E420ADA220001231A32FD
:1012E0000A9909980B9FB847431C95D00136F0E73F
:1012F000129B2A00ACE0A36D129E9E4200DD1E00F0
:10130000002E05DC00230C93F343DB170F9315E04D
:1013100033002A000A9909980B9FB847431CF1D162
:101320007AE7220001231A320A9909980B9FB847DD
:10133000431C00D170E70C9B01330C930F9BA26DF3
:101340000C993340D31A9942EBDBAE18119B129AD9
:1013500093420DDB2368DB070AD4129B119AED1828
:10136000AD1B9B1A9D4200DD1D00002D09DC11E024
:101370000E9B0D9A0A9909980B9FB847431CECD114
:101380004AE72B0032000A9909980B9EB047431C8C
:1013900000D141E7EF43FB1700260C930AE022003F
:1013A00001231A320A9909980B9FB847431C00D1B0
:1013B00032E70136119A129B0C999B1A2A000A40B7
:1013C0009B1A9E42EBDB49E7129B012B02DC0123B7
:1013D0001A4245D001232A000A9909980B9FB84761
:1013E000431C00D118E70E9B0D9A0A9909980B9F90
:1013F000B847431C00D10FE7A06CE16C002200232A
:1014000003F0D6FC002801D000251AE0129B6A1CCC
:10141000013B26E0FFFFEF7F3875000834750008B8
:10142000407500083C75000844750008220001233F
:101430001A320A9909980B9FB847431C00D1EBE672
:101440000135129B013B9D42F0DB220033005032FC
:101450000A9909980B9DA847431C00D0FEE6DBE6DD
:101460002A000A9909980B9DA847431CEDD1D3E6A1
:101470002200012319320A9909980B9EB047431C98
:1014800000D1C9E60135E368139A9B1A9D42EFDB50
:10149000139BE06898425EDA18005CE08023626883
:1014A000DB00511C00D06AE6073202E0002A02D1BC
:1014B0000122626069E60C9908A80B43002106919D
:1014C00012A9059111A90391232109182360019301
:1014D00000922B000497029132000998FFF758FD03
:1014E0000500119BDA1C02DB626893421CDD023F9F
:1014F000FFB267E6013323617AE6662F15D1636890
:10150000002909DD2161002B02D12268D2071ED5F6
:101510000133591821611AE0002B03D101222168FF
:10152000114213D09A1C11E06727119B129A934223
:1015300006DB22682361D20709D50133236106E067
:101540000121002B01DC4918C91A8A182261119B5C
:101550000026A3654CE615B0F0BDC046F7B51700F0
:1015600001938A680B6900900C00934200DA130023
:1015700022003B6043321278002A01D001333B60E5
:1015800023689B0602D53B6802333B60062523682F
:101590001D401ED0230043331B785A1E93412268FE
:1015A00092061CD53020E1184331087021005A1CE6
:1015B00045310978A2184332023311700FE022003E
:1015C0000123193201990098089EB047431C0ED0A0
:1015D0000135E3683A689B1A9D42F0DBDAE72200A6
:1015E000019943320098089DA847431C02D101206D
:1015F000404220E006232068E1683A680340002565
:10160000042B03D18D1AEB43DB171D40A36822691D
:10161000934201DD9B1AED180027BD420AD022003B
:1016200001231A3201990098089EB047431CDED06E
:101630000137F2E70020FEBDF0B58BB006920A003C
:1016400043320793059004920A7E0C00109B6E2A89
:1016500000D1ABE011D8632A22D009D8002A00D1EA
:10166000B5E0582A00D0C5E045310A70814A4FE004
:10167000642A1DD0692A1BD0BCE0732A00D1AAE0DD
:1016800009D86F2A29D0702A00D0B3E02022096837
:101690000A43226037E0752A1FD0782A33D0A9E0A8
:1016A0000E001A684236111D196013683370A4E0E9
:1016B00021681A68080606D4490604D5111D196068
:1016C0000023D55E02E0111D19601568002D3BDA7C
:1016D0002D23049A6D42137036E021681A680806BB
:1016E00006D4490604D51568111D1960ADB202E093
:1016F000111D196015685F4B227E039308276F2A1E
:101700001DD00A271BE022007821453211705A4A69
:1017100019680392081D226818600D68100602D42B
:10172000500600D5ADB2D30702D520231A4322605C
:101730001027002D03D1202322689A432260230022
:10174000002243331A7002E00A274A4B039363686E
:10175000A360002B09DB0422216891432160002D46
:1017600005D1049E002B11D07BE0002D79D0049E82
:101770002800390003F01CFA039B013E5B5C280043
:101780003370390003F08EF9051EF1D1082F09D10D
:101790002368DB0706D563682269934202DC3023A5
:1017A000013E3370049B9B1B23612BE009681A6880
:1017B000080607D4490605D5111D19601368A28AC9
:1017C0001A8004E0111D1960136862691A60002311
:1017D000049E236116E01A68111D19601668002125
:1017E0006268300002F06CFB002801D0801B606052
:1017F000636803E026004236327001232361002330
:10180000049A1370079B09AA00932100069B059870
:10181000FFF7A4FE431C02D10120404227E02369C8
:10182000320006990598079DA847431CF4D0236809
:1018300000259B070FD4099BE068984217DA18002F
:1018400015E022000123193206990598079EB0473A
:10185000431CE1D00135E368099A9B1A9D42F0DBF5
:10186000E9E72600039B42361B7833708EE70BB006
:10187000F0BDC0464675000857750008F0B58BB03E
:10188000029000920020AE2205938B680E00591E34
:1018900052000490914205D95E3BFF3B04935E23C6
:1018A000FF33B360F0233268DB001343336033004F
:1018B00000271C331D003C000393089707970197EE
:1018C0000697B268002A00D1E6E0009B1B680993E6
:1018D0001B78492B74D018D8392B0DD8312B42D214
:1018E0002D2B48D002D82B2B45D0D5E02E2B00D164
:1018F0008DE0302B25D0CFE0452B00D190E0462B5A
:1019000079D0412B00D0C7E056E0652B00D187E0AD
:101910000AD8542B73D002D84E2B34D0BCE0592BAC
:1019200071D0612B48D0B7E06E2B2CD004D8662B39
:1019300061D0692B44D0AFE0742B60D0792B62D09A
:10194000AAE03168C8050ED580239943019B316018
:1019500001330193049B002B00D181E0013B013254
:101960000493B2607CE0E219002A00D094E0BA4A05
:1019700031680A4005E0802132680A4200D18BE0DC
:101980008A4332606AE0002C0FD1019A002A0ED1FE
:10199000E022E0203168D2000A40C000824206D135
:1019A000AE4A01340A40326058E0022C55D0012F73
:1019B0001ED0042F1CD06FE0012C6DD102244DE00D
:1019C000002F0FD1019A002A69D1E022E02031686E
:1019D000D2000A40C000824265D1A04A01370A40C5
:1019E00032603BE00221FA1E8A43D2B2002A53D170
:1019F0000137FFB232E0022F4ED103272EE0062F2F
:101A00004AD107272AE0072F46D1082726E0316868
:101A10008A0541D5924A0A403260019A06921DE039
:101A2000A02280203168D2000A40C000824204D047
:101A3000014231D0019A002A35D08A0504D4019A96
:101A400006980895121A0792844A0A40C021490054
:101A50000A4332600022019200E003242B7001351A
:101A6000B368009A013BB360336901333361009B73
:101A70005B680993013B5360002B04DD13680993F5
:101A8000013313601DE7C0235B00F35800990298EF
:101A90009847002800D114E7019B002B03D032683F
:101AA000704B13403360013C012C10D8BE246400FD
:101AB000039B9D4209D9013D33592978009A029828
:101AC00098473369013B3361F2E70123BFE07B1E96
:101AD000062B2AD8022F02D8BE24640018E03C004E
:101AE0000495013CE4B2022C0ED0049B009A013B09
:101AF00004931978BE235B00F35802980993984722
:101B00003369013B3361ECE7033FFFB2ED1B0CE0AF
:101B1000039B9D42D9D9013D33592978009A0298F7
:101B200098473369013B3361F2E73368DA052BD517
:101B30005B050ED5BE246400039B9D42C5D9013DC3
:101B400033592978009A029898473369013B3361E9
:101B5000F2E733696C1E2178013B336165290CD0B3
:101B600045290AD0BE235B00F358009A0298984793
:101B70003369AC1E013B21783361BE235B00F3580F
:101B8000009A029898472500102332681A40009264
:101B90005CD16B461B782B70C0233268DB0013408E
:101BA0008022D200934206D1069A019B9B1A5A4288
:101BB000002B0DD118E0079B002B15D0089B009A35
:101BC000591C02980A2300F025FF079B089DC21AA2
:101BD00033007033FF339D4202D335006F35FF353C
:101BE0002149280000F058F800220399029800F0DB
:101BF000E1F8059B326804000D001B68910701D5D0
:101C00001A1D04E004210A40019206D05A180599D1
:101C10000A601B681C605D6014E005991A1D0A606B
:101C20001F6822002B002000290004F02BFE002852
:101C300003D0019800F02CF803E02000290004F004
:101C4000F1FE3860F3680133F36001E00023009394
:101C500000980BB0F0BDC0467FFEFFFF7FF8FFFF8E
:101C60007FFDFFFFFFFEFFFF68750008002370B5D2
:101C7000064C05000800236004F096FF431C03D1C6
:101C80002368002B00D02B6070BDC046FC0B0020E9
:101C9000004870470000C07F0EB410B59DB002A987
:101CA000029008610B48822488604861012040420C
:101CB0001FABC881084804CBA400006801938C8145
:101CC00002F07CFD0023029A13701DB010BC08BC0A
:101CD00003B01847FFFFFF7F7000002070B50C00B5
:101CE0000E25495F02F068FE002803DB636D1B18B8
:101CF000636503E0A289024B1340A38170BDC04617
:101D0000FFEFFFFFF8B51F008B8905000C001600E0
:101D1000DB0505D50E23C95E0022022302F0B2F8CE
:101D2000A289054B28001340A38132000E23E15EF7
:101D30003B0000F001FFF8BDFFEFFFFF70B50C00A6
:101D40000E25495F02F09EF8A389421C03D1054A83
:101D50001340A38104E0802252011343A3816065F4
:101D600070BDC046FFEFFFFF10B50E23C95E00F047
:101D7000F7FE10BD0023C25C0133002AFBD1581EC0
:101D80007047000070B516000D0002F083FB002EB6
:101D90000DD06B226B005B0DD31A002B07DD0024E6
:101DA000034A1B059D182B00220003F09DFF70BD08
:101DB0000000F03F0023F0B5A3B01E9300260027DB
:101DC0000B000290049118921D931D9B1A780D2A06
:101DD00005D8092A14D2002A00D1BDE112E02B2A2D
:101DE00004D02D2A04D0202A0CD109E0002200E0E2
:101DF000012210925A1C1D925B78002B04D1ABE19A
:101E00000133E1E70023109300221D9D09922B78F6
:101E1000302B5DD16B78582B01D0782B4CD1109B97
:101E2000C24A01931EAB00931DA91FAB029801F09B
:101E30003EFD07240390044001D100F0BCFD062CB8
:101E400005D1002301351D95109300F0B4FD1E9AB5
:101E5000002A07D0352120A802F008FC1E9902981C
:101E600002F07CF8062C1DD8200002F011FE040AB6
:101E70000715180A040000273E0013E0209E219F4A
:101E800010E0219BAA4AAB491A401F9B209E5B1879
:101E90001B051A43170005E0A74F002602E00126A4
:101EA000A64F7642039B1B0701D400F084FD8023DC
:101EB0001B061F4300F07FFD1D9B5A1C1D925B7883
:101EC000302BF9D0002B01D100F075FD01230993CF
:101ED00000250A221D9B08950C9306951D9C2378CE
:101EE0000393303BD9B2092910D80699082904DC9C
:101EF000089951435B18089302E0290051435D188B
:101F0000069B0134013306931D94E7E7029801F024
:101F1000B5FF03680298059301F0B0FF0068FFF772
:101F200029FF05990200200002F05AFD041E06D088
:101F30000020069A039B8446039205905AE002987B
:101F400001F09CFF0068FFF715FF1D9B069A18180B
:101F50001D900378101E3ED1302B05D11D9B013002
:101F60005A1C1D925B78F7E71A00313A082A3CD8D0
:101F7000844600201D9A03900C92303B421C002B9B
:101F800023D00A219444039A101882420BD00132C4
:101F9000541E082C03D8089C4C430894F5E7102ADB
:101FA000F3DC4D43F1E7511C0391082A06DC0A22B9
:101FB00008994A439B180893002206E003990022DF
:101FC000102902DC0A2169435D181D9B1000591C71
:101FD0001D915B7803E02000A446069A03921A0044
:101FE000303A092AC9D9012203E00022039294461B
:101FF000013205922022190091430A000021452A4E
:102000004DD1039B099A034313438B4200D1A3E0B4
:102010001D9B049301331D93049B5B782B2B04D0F1
:102020000C002D2B07D1012400E00C00049B02338F
:102030001D93049B9B781A00303A092A2CD8302B28
:1020400004D11D9B5A1C1D925B78F8E71A00313AA7
:102050000021082A23D8303B0A931D9B11931D9B16
:10206000591C1D915B781A00303A092A06D80A22B9
:102070000A994A43D218303A0A92F0E7119A8A1A1A
:102080002F49082A04DC0A992D4A914200DD1100EB
:10209000002C04D0494202E00021049A1D92039AC8
:1020A000002A64D1099A104301D000F084FC059AFB
:1020B000002A51D14E2B1CD002DC492B05D04BE01D
:1020C000692B02D06E2B14D046E01E491DA801F0EA
:1020D0002AFE002840D01D9B1B49013B1DA81D93D3
:1020E00001F021FE002802D11D9B01331D93124FE8
:1020F00018E016491DA801F016FE00282CD01D9BE3
:102100001B78282B0DD120AA11491DA801F01FFE14
:10211000052806D1219B084A209E1A43170000F08B
:102120004AFC0C4F002600F046FCC04684750008AF
:10213000FFFFEFFF330400000000F07FFFFFFF7F91
:102140001F4E000039750008C4760008417500086C
:10215000707500080000F8FF049B1D930023109386
:10216000189B002B01D000F029FC00F032FC6346E4
:10217000CB1A0593069B002B01D1039B0693039C6E
:10218000102C00DD1024089804F014FC06000F0049
:10219000092C15DD2300874A093BDB00D3181A6898
:1021A0005B6803F0A1FD060028000F0004F002FCAC
:1021B00002000B003000390002F046FE06000F005E
:1021C000039B0F2B3ADC059B002B01D100F0F3FBA6
:1021D00026DD162B07DC7749DB00C91832000868BA
:1021E00049683B0017E02523039A9B1A059A9A42F7
:1021F00024DC0F24039B6F4DE41AE10069183200C0
:10220000086849683B0003F06FFD059B1C1BE40058
:102210002D192A686B6803F067FD06000F00CAE3FA
:10222000059B16330ADB059B3000DA00614B390051
:102230009B1A1A685B6803F033F9EEE7039B1C1BDB
:10224000059BE418002C59DD0F2323400AD059497F
:10225000DB00C9183200086849683B0003F044FD00
:1022600006000F000F239C4300D1B3E02633FF3359
:102270009C420DDD0024039408940594222300263B
:10228000029A4D4F1360089BB34200D07FE392E364
:102290000023300039001D002411012C0DDD012226
:1022A000144207D0454AEB009B181A685B6803F09C
:1022B0001BFD012301356410EFE7002B01D0060060
:1022C0000F003F4BED00FF183C4B32005D192868B2
:1022D00069683B0003F008FD374B0F000B4039499C
:1022E00006008B42C6D838498B4203D90126374FA6
:1022F00076426FE0D4239B04FF186BE0002C69D07A
:102300000F23644223400AD02A4ADB00D31830004E
:102310001A685B68390003F0C3F806000F00241147
:1023200058D01F2C04DD002403940894059426E162
:1023300000230493E30601D56A2304933000390097
:102340000023234D002C0ADD0122144204D02A6808
:102350006B6803F0C9FC012364100835F2E7002B19
:1023600001D006000F00049B002B19D06B227B00CC
:102370005B0D3900D31A002B12DD1F2B0CDD00265C
:10238000342B02DDDC27BF040AE00122203B52424D
:102390009A4011400F0003E0012252429A40164039
:1023A000002200233000390002F002FD0028BAD1DB
:1023B00012E0C046D87600080000F07FB077000831
:1023C0000000B0FC0000A07C0000907CFFFFEF7FCD
:1023D0009875000800230493089B069A00930C99B3
:1023E000039B029801F010FE0890002800D141E7FD
:1023F000059B00245A42DB171A40059B1392DB43CE
:10240000059ADB171A4011920394089B02985968A9
:1024100001F06CFD0590002800D12FE7089B08997A
:102420001B690C319A1C92000C30069301F053FD8D
:1024300020AB01931FAB009332003B0002980C9637
:102440000D9702F097F81E90002800D116E70121A1
:10245000029801F061FE0390002800D10EE71F9B57
:10246000002B00DA95E0139AD518119A0992049975
:1024700020985B1A3621091A1B188C46C549013B66
:1024800001208B4200DB8FE06246C91A521A944643
:102490001F2900DD82E08840002312900A932B0060
:1024A00063440693099B049A6344D3180993069BDB
:1024B0002A009D4200DD1A00099B934200DD1300B3
:1024C000002B06DD069AED1AD21A0692099AD21A44
:1024D0000992139B002B6BD1069B002B00DD80E043
:1024E000119B002B00D086E0099B002B00DD8CE0C7
:1024F000002D00DD93E0059A1E99029801F05FFF20
:10250000041E00D1BAE60025C3680399C56009938B
:1025100001F03AFFA84200DB8FE0099BAB4200D0FC
:1025200020E2AE4200D01DE23B03AB4200D019E2F4
:10253000D622994BD2043B40934200D812E2636901
:10254000AB4276D021000122029801F0CBFE039924
:10255000040001F019FF002800DC03E2049A8E4B0E
:10256000002A00D199E01A00D6213A40C9048A42D3
:1025700000DD92E0DC239B049A4200DDF5E122239A
:10258000029A00261360089B0027002B00D0FEE172
:1025900011E2119A139DD21A099268E77F49CB1A6A
:1025A000010099400A9101E000230A93129076E716
:1025B0001A000399029801F041FE0390002800D10F
:1025C0005CE601001E9A029801F0AFFD1990002808
:1025D00000D153E61E99029801F0C0FC199B1E938E
:1025E0007AE7069A1E99029801F07CFE1E90002858
:1025F00000D075E742E6119A0599029801F01EFE97
:102600000590002800D06FE738E61A000599029877
:1026100001F068FE0590002800D069E72EE62A0048
:102620000399029801F05EFE0390002800D062E753
:1026300024E62369012B85DC94E1002864D1099A02
:102640003B03002A24D0564A39001B0B93422DD15C
:10265000049B0138B4460200002B0AD0D4254E4B0F
:10266000ED043B40AB4204D86C321B0DD31A020080
:102670009A4062451AD14B4B994202D1531C00D16A
:10268000FCE5454B0026194080235B03CF1869E128
:10269000002B0BD1002E09D160E70126424A3B40B6
:1026A0009B183F4A76421A4317005BE10A9B002BB6
:1026B00003D03B4200D155E103E0129B334200D1ED
:1026C00050E1099B049A30003900002B0AD0FFF733
:1026D00059FB02000B000C980D9902F0B5FB0600A7
:1026E0000F003FE1FFF74EFB02000B000C980D9925
:1026F00003F074FD0022002306000F0002F058FBD7
:10270000002800D03BE72DE10399200001F086FF6F
:1027100080230022DB050690079102F059FB002878
:102720004AD0099B002B04D00022204B0A920B9325
:102730000EE0002E02D13B0305D10CE0012E02D1A8
:10274000002F00D11BE700220025194B0A920B93A2
:10275000164B069349E0002206980799134B02F0A6
:102760002DFB002808D1069807990022114B03F091
:10277000BBFA0500069102E00E4B099D06938022EC
:1027800012069446069B1A9563441B931A9A1B9B48
:1027900029E0C04602FCFFFF0000F07FE2FBFFFFE4
:1027A000FFFF0F00FFFFEF7F0000F0FF0000F03F92
:1027B0000000F0BF0000E03F894B06980799002217
:1027C00003F092FA099B05000691002B05D18023A6
:1027D0001B06CB181490159303E00200069B14927D
:1027E0001593149A159B0A920B937E4B3B401293C0
:1027F000129A7D4B9A4229D10C9A0D9B0E920F93FF
:102800007A4B3000FF18390001F044FE02000B0043
:102810000A980B9903F068FA32003B0002F014FBAF
:10282000704A734B06000A409A420BD9714B0F9ABB
:102830009A4203D10E9B013300D11FE501266D4F53
:1028400076427EE0D4239B04CF1844E0049B002B07
:102850002FD0D423129ADB049A422AD8664A674BB7
:102860002800069902F0B4FA00281BD02800069927
:1028700002F0CCFA002800D1013004F09BF8099B4B
:1028800005000691002B05D180231B06CB1816905E
:10289000179303E00200069B16921793169A179B54
:1028A0000A920B93D6220B9BD2049B18129A9B1A66
:1028B0000B930C980D990A9E0B9F01F0EBFD020003
:1028C0000B003000390003F00FFA0C9A0D9B02F058
:1028D000BBFA06000F00049B002B32D1414B129A29
:1028E0000A973B409A422CD10699280003F0EAFF50
:1028F00004F01EF80B0002000699280003F06EFC9D
:10290000099B06900791002B04D1002E02D10A9B4F
:102910001B030ED006980799394A3A4B02F04EFA3B
:10292000002834D106980799374A2D4B02F05AFAFD
:1029300005E0334A354B0698079902F03FFA002824
:1029400025D11E99029801F009FB0599029801F022
:1029500005FB0399029801F001FB2100029801F0A8
:10296000FDFA52E5049B002B11D0294B30000F9348
:1029700000230E9339000E9A0F9B03F0B5F9060061
:102980000F1E04D1002802D12223029A13601E993F
:10299000029801F0E3FA0599029801F0DFFA039931
:1029A000029801F0DBFA0899029801F0D7FA2100A9
:1029B000029801F0D3FA189B002B02D0189B1D9AA5
:1029C0001A60109B002B04D080231B063200FB18DA
:1029D00001E032003B001000190023B0F0BDC046FA
:1029E0000000E03F0000F07F0000E07F0000B0FC4E
:1029F000FFFF9F7CFFFFEF7F0000C0FFFFFFDF4175
:102A00009535A094FFFFDF3F35E5AF35FFFFCF3FA2
:102A100000005039F0B51E00454B87B01B6801928D
:102A2000029308220B00059003911C7802995D1C0B
:102A300009194878104001D02B00F6E72D2C04D15D
:102A40009D1C5C780123009304E000902B2C01D1A5
:102A50005C789D1C002E02D0102E0AD162E0302C32
:102A60005ED120222B789343582B54D110266C78BA
:102A70000235009F31007B1E9F412E4BFF1838000E
:102A800002F096F838000491310002F00BF80023B0
:102A90000322070094461800029A12195178042262
:102AA000114201D0303C07E06246114017D0372276
:102AB000012900D02032A41AA64210DD5A1C0BD0E6
:102AC000B84207D802D1049B9C4203DC7043012327
:102AD000201801E001235B422C780135DCE75A1C09
:102AE0000BD10098059A431E9841124BC01822231F
:102AF0001360019B002B0AD117E0009A002A00D036
:102B00004042019A002A10D0039A002B00D06A1E7E
:102B1000019B1A6009E03024002EAAD10826A8E7FC
:102B20000A26A6E7302C9CD0A3E707B0F0BDC0462C
:102B300074000020FFFFFF7F70B505000800110042
:102B40000022064C22601A00FDF760FE431C03D1F0
:102B50002368002B00D02B6070BDC046FC0B00200A
:102B6000002370B5064C05000800236004F004F84B
:102B7000431C03D12368002B00D02B6070BDC046DE
:102B8000FC0B0020F0B503690C6989B007000591C2
:102B900000269C4279DC0B00013C1433A500039312
:102BA0005B1904930300143302935D19049B286896
:102BB0001B68591C019301F075FF0190B04233D09E
:102BC000039B02989C460696634604CB9C46019B59
:102BD00091B25943120C5A4389190B0CD31807931D
:102BE000069A1E0C038889B29B1802685B1A110CA6
:102BF0006A46928B8A1A1914521811149BB2120445
:102C0000134308C0049B06916345DDD22B68002B5B
:102C10000AD1029B043DAB4201D33C6104E02B6826
:102C2000002BFAD1013CF4E70599380001F0ACFB28
:102C3000002829DB0020019B02990133039A0193AC
:102C400040CA0B881818B3B2C31A0868360C000CB7
:102C5000801B1D14451928149BB22D042B4308C159
:102C6000049B9342ECD2029AA300D3181A68002A5C
:102C70000AD1029A043B9A4201D33C6104E01A68EB
:102C8000002AFAD1013CF4E7019E300009B0F0BD02
:102C9000F0B516001F00446A9DB00490259D06966D
:102CA0000797002C08D1102001F000F9049B58620E
:102CB000446084600460C460049B5B6A19680029F6
:102CC0000BD05A68012393404A608B60049801F04E
:102CD00045F90022049B5B6A1A60079B002B05DA0A
:102CE00001232B607B005B08079301E000232B602E
:102CF000079CC84B220019931A409A4219D1C64B1F
:102D0000249A1360069AC54B002A02D1240300D1ED
:102D1000C34B269A1800002A01D100F07DFDD97816
:102D2000DA1C002900D00532269918000A6000F04C
:102D300073FD069E079F002200233000390002F039
:102D400037F8051E0ED00123249A1360B54B269A3E
:102D50001800002A01D100F05FFDB34A26990A60ED
:102D600000F05AFD1AAB01931BAB009332003B00FD
:102D7000049801F0FFFB630005905B0D09D03A0356
:102D8000AA4C120B1443AA4A300021009E18179532
:102D90001AE01A9B1B9A9E18A64BF318202B08DDED
:102DA000A54A0698B218D0404022D31A9C4020432E
:102DB00003E020220698D31A984003F0FBFD01237C
:102DC0009E4C013E0919179300229D4B03F006FA11
:102DD0009C4A9D4B02F088FF9C4A9D4B02F034F8C0
:102DE000040030000D0003F0A3FD9A4A9A4B02F054
:102DF0007BFF02000B002000290002F025F80400F0
:102E00000D0003F05FFD0022039000232000290045
:102E100001F0D4FF00280DD0039803F089FD0200D3
:102E20000B002000290001F0C3FF43424341039AF5
:102E3000D31A039301231693039B162B11D88749AA
:102E4000DB00C91808684968069A079B01F0CAFFA9
:102E5000002805D0039B013B03930023169300E059
:102E600016901A9B9E1B00230B93013E0C9604D5D3
:102E70000C9B5B420B9300230C93039B002B08DB02
:102E8000039A0C9B944663440C930023119208937D
:102E900007E00B9B039A9B1A0B9353420893002362
:102EA0001193229B0125092B25D8052B02DD002536
:102EB000043B2293229B981E032824D801F0E8FDAE
:102EC000060E0204012302E0012308E00023109310
:102ED000239B002B20DD1F000A9321E00023239A6F
:102EE0001093039B9F187B1C0A930123FA18002A56
:102EF00016DD130014E0012700237F422293109572
:102F00000A97123305E0012701237F4210930A97A5
:102F100011330022239203E001273B000A972397F5
:102F2000049A546A002262600432110014319942FA
:102F300004D86168520001316160F6E76168049865
:102F400000F0D4FF049B20605B6A1B680D930A9B12
:102F50000E2B00D981E1002D00D17EE1069B079C5C
:102F600014931594039B002B31DD0F223B49134032
:102F7000DB00CB185C681B680E930F94039B022444
:102F80001D11EB060AD514981599354B15401A6A90
:102F90005B6A02F085FA069007910134304E002DED
:102FA0000ED001231D4208D00E980F99E418326804
:102FB000736802F099FE0E900F916D100836EEE7DF
:102FC0000E9A0F9B0698079902F06AFA4CE0039B51
:102FD00002245D42002D49D0149815990F231F4AF1
:102FE0002B40DB00D3181A685B6802F07DFE0023DB
:102FF000069007911A4E2D11002D33D00122154253
:1030000005D0A4183268736802F06EFE01236D10BB
:103010000836F1E70000F07F0F270000CA760008AD
:10302000C176000844750008457500080000F03FAF
:1030300001FCFFFF3204000012040000000010FE3B
:103040000000F83F61436F63A787D23FB3C8608B2E
:10305000288AC63FFB799F501344D33FD876000897
:10306000B0770008002B01D006900791169B002B2B
:103070001DD0069D079E0022C74B2800310001F09D
:103080009DFE002813D00A9B002B10D0002F00DCDF
:10309000DFE0039B3100013B0E930022BF4B280071
:1030A00002F022FE0134069007913E0002E0039BED
:1030B0000A9E0E93200003F03BFC069A079B02F049
:1030C00013FE0022B64B01F0BFFEB64A12901391D8
:1030D000129C139D9446139B634418931D00002E6D
:1030E0001CD1069807990022AF4B03F077F8220015
:1030F000189B0690079101F075FE002800D054E25D
:10310000AA481399844661440B0006980799220047
:1031100001F054FE002800D03DE29AE0109A731EA0
:10312000A349DB00002A49D0CB181A685B6800204D
:10313000A04902F0B5F92B00220003F04FF81290DD
:1031400013910D9D0698079903F0BCFB040003F052
:10315000EFFB02000B000698079903F03FF80135DA
:103160006B1E30341C70129A139B0690079101F06D
:1031700025FE002800D02EE3069A079B00208649F2
:1031800003F02CF8129A139B01F018FE002800D0CF
:10319000C7E00D9BEB1AB3425BDA12981399002239
:1031A0007E4B02F0A1FD0022129013910698079920
:1031B0007A4B02F099FD06900791C3E7C9182200E7
:1031C000086849682B0002F08FFD0D9C1290139146
:1031D000A5190698079903F075FB060003F0A8FBF4
:1031E00002000B000698079902F0F8FF30362670AF
:1031F0000134069007910022A54222D16D4B12980E
:10320000139901F021FE02000B000698079901F0C6
:10321000E9FD002800D084E0129A139B0020654944
:1032200002F0DCFF02000B000698079901F0C6FDD2
:1032300000280ED06B1E1A78302A00D0CBE21D0079
:10324000F8E706980799554B02F04EFD0690079156
:10325000BFE7149B159C069307941B9B002B00DA79
:1032600081E0039A0E2A00DD7DE0D300504AD31896
:103270005C681B6808930994239B002B15DA0A9B52
:10328000002B12DC00D088E1089809990022464BF7
:1032900002F02AFD069A079B01F0AEFD0A9B0893F7
:1032A0001E00002800D07BE182E10D9D069E079F55
:1032B000089A099B3000390002F0F2F803F002FB93
:1032C000040003F035FB089A099B02F00DFD020093
:1032D0000B003000390002F081FF220001356B1E27
:1032E00030321A700D9B0A9AEB1A9A422ED10200C4
:1032F0000B0001F0A9FD06000F0002000B0008986A
:10330000099901F05BFD00280FD108980999320056
:103310003B0001F04DFD002800D15EE2E30704D43C
:103320005BE20E9B039300E01D006B1E1A78392AA6
:1033300008D10D9A9A42F7D1039A0D99013203925E
:1033400030220A701A7801321A7046E20022134BBA
:1033500002F0CAFC0022002306000F0001F028FD45
:103360000028A5D039E2109A002A44D0229A012AD6
:103370000BDC179A002A02D00F4A9B1802E0362372
:103380001A9A9B1A089D0B9C29E00A9B5D1E089BBC
:10339000AB4213DB5D1B18E00000F03F000024404F
:1033A00000001C400000C0FC000014400000C07C75
:1033B000D87600080000E03F33040000089B089521
:1033C000EA1A0025119B9B1811930A9B002B04DA23
:1033D0000B9B0A9A9C1A002301E00B9C0A9B0B9AF8
:1033E0000121D2180B920C9A0498D3180C9300F078
:1033F00093FE060002E0089D0B9C109E002C0ED050
:103400000C9B002B0BDD0C9A2300944200DD130073
:103410000B9AE41AD21A0B920C9AD31A0C93089BAB
:10342000002B20DD109B002B17D0002D11D0310078
:103430002A00049800F002FF059A01000600049893
:1034400000F073FE05990E90049800F087FD0E9B26
:103450000593089B5A1B06D000E0089A059904982A
:1034600000F0ECFE05900121049800F055FE119B40
:103470000890002B00D1C0E11A000100049800F070
:10348000DDFE229B0890012B17DC0025069BAB423A
:103490000ED1079B1B03AB420AD1199B079A13421B
:1034A00006D00B9B013501330B930C9B01330C931E
:1034B000119B0120002B0DD000E00025089B089AED
:1034C0001B690E9303339B00D318586800F0DAFD94
:1034D0002023181A0C9BC0181F23184009D0013351
:1034E0001B1A042B02DD1C23181A03E0042B08D03E
:1034F00018001C300B9B24181B180B930C9B1B18DB
:103500000C930B9B002B05DD1A000599049800F025
:10351000E9FE05900C9B002B05DD1A000899049824
:1035200000F0E0FE0890169B002B1DD0089905982E
:1035300000F02AFF002817DA039B0A22013B0393BD
:1035400005990023049800F022FD109B0590002BA4
:1035500000D159E1310000230A22049800F017FD40
:103560000600002F37DC33E00A9B0A9F002B2ADC81
:10357000229B022B27DD002F12D108993B00052248
:10358000049800F004FD08900100059800F0FCFE8E
:1035900000280DDC04E0089602E000231E000893DA
:1035A000239B0D9DDB4303930AE00E9B0896039338
:1035B0000D9B0D9A5D1C31231370039B0133039304
:1035C0000A960026F3E0109B002B04D10D9DB5E078
:1035D000229B022BCFDC002C05DD31002200049859
:1035E00000F080FE06000A96002D12D07168049843
:1035F00000F07CFC3100040033690C319A1C92000D
:103600000C3000F068FC01222100049800F06AFEF2
:103610000A900D9B7D1E0B935B190E9308990598DC
:10362000FFF7B0FA310010900400059800F0ACFEEE
:103630000A9A05000899049800F0C1FE01230C9332
:10364000C36830340700002B04D10100059800F056
:103650009BFE0C903900049800F080FC0C9B229A91
:10366000134308D1069A0133134204D1392C2AD0CE
:10367000002D1CDC1DE0002D06DB229B1D431BD111
:103680000123069A134217D10C9B002B11DD0599DB
:103690000122049800F026FE0899059000F074FEBF
:1036A000002802DC05D1E30703D5392C0BD0109C90
:1036B00031340B9B5D1C0FE00B9B5F1C0C9B002BA4
:1036C0000CDD392C05D10B9B0B9A5D1C3923137033
:1036D00057E03D000B9B01341C7068E00B9B0E9A79
:1036E0003D001C7093423CD000230A2205990498A7
:1036F00000F04DFC0A9B05909E4208D1310000234A
:103700000A22049800F043FC06000A900DE0310004
:1037100000230A22049800F03AFC002306000A2243
:103720000A99049800F033FC0A900B9776E700237F
:103730000A220599049800F02AFC0590089905983A
:10374000FFF720FA0D9B3030287001350400EB1A8A
:10375000BB42ECDB3D1E00DC01250A9600260D9BDA
:103760005D1905990122049800F0BCFD08990590A7
:1037700000F00AFE002804DC13D1E30701D410E0B6
:103780001D006B1E1A78392A08D10D9A9A42F7D17A
:10379000039B013303933123137008E001321A7045
:1037A00005E06B1E1A78302A01D11D00F9E708994F
:1037B000049800F0D3FB0A9B002B0ED0002E05D0FE
:1037C0009E4203D03100049800F0C8FB0A99049887
:1037D00000F0C4FB01E00E9B03930498059900F0F0
:1037E000BDFB00232B70039B249A01331360269B9F
:1037F0000D98002B10D01D600EE0229B012B00DCE9
:1038000043E6119D012065E6002F00DDDEE6229BE8
:10381000022B00DCDAE6AEE61DB0F0BDF0B5060026
:10382000056914364A113400AA4225DA1F23AD0077
:10383000920019407519B2183300002916D01300F0
:1038400004CB2027CA40B4467F1A64469D4208D95B
:103850001C68BC402243644604C404CBA446CA404E
:10386000F3E72260002A07D0043405E01C009542EB
:1038700002D902CA02C3F9E7A31B9B10036100D15E
:103880004361F0BD0300303B092B01D820380BE029
:103890000300613B052B01D8473805E00200413A9F
:1038A0000023052A01D82738C3B218007047F0B5A5
:1038B0008DB0099102920A93059000F0DFFA036837
:1038C00018000793FEF756FA0222079B52421B1874
:1038D000013B1B7804900B93099B19688B1C521AAF
:1038E000D118019308910199013308783028F7D055
:1038F000FFF7C8FF061E20D1049A0799019801F02E
:103900006FF800283CD1019B049A9C182078FFF79F
:10391000B9FF002837D00194019B1878302803D1D3
:10392000019B01330193F7E7FFF7ACFF43424341AB
:10393000039301232600089302E000231E00039353
:10394000019C2078FFF79EFF002801D00134F8E7A2
:10395000049A0799200001F043F800280BD1002EAB
:103960000BD1049BE41826002078FFF78BFF00287A
:1039700001D00134F8E7371E08D0361BB70005E048
:10398000019C370000E00700012303932378502BAC
:1039900001D0702B28D163782B2B07D02D2B03D08F
:1039A0000023661C069304E0012300E00023069335
:1039B000A61C3078FFF766FF431EDBB2182B13D826
:1039C0001038013605003078FFF75CFF431EDBB28C
:1039D000182B03D80A235D432818F1E7069B002B18
:1039E00000D06D427F1900E02600099B1E60039BFA
:1039F000002B06D00020089B834200D07FE10630D8
:103A00007DE1019B0399E31A013B072B02DD0131A4
:103A10005B10FAE7059800F069FA0300002605003C
:103A20001433039308930696019BA3422BD2631E83
:103A300009930B9A1B78934209D0069B202B15D132
:103A4000089B1E6000260433089306960EE00123AF
:103A5000049A9C1A099B1C19019BA342EDD8079953
:103A6000200000F0BDFF0028DED0E6E7099B1878B3
:103A7000FFF708FF0F231840069B099C984004336A
:103A800006430693D0E7089C039B40C4E41AA410A5
:103A90002C61300000F0F6FA029B64011B68261AC4
:103AA00001939E4225DDF61A3100280000F0F4FD56
:103AB0000024A04217D01F2101342000731E19409A
:103AC000884001005A110398920012580A420AD005
:103AD000A34201DC022406E0B11E280000F0DCFD58
:103AE0000028F7D0032431002800FFF797FEBF1904
:103AF0000EE0019B00249E420ADA9E1B2900320040
:103B0000059800F0EFFB030005001433BF1B03937F
:103B1000029B9B6804939F4208DD0598290000F0F2
:103B20001DFA0023129AA3201360E8E0029B5E684E
:103B3000B74259DA019BF61BB34232DC029BDB68C9
:103B4000022B1ED0032B20D0012B21D1019BB3428D
:103B50001ED1012B0DDC029B62205B680193019A50
:103B60000A9B1A600123039A2B611360129B1D604C
:103B7000C5E001992800013900F08EFD0028EAD146
:103B800006E0139B002BE6D002E0139B002BE2D152
:103B90000598290000F0E2F90023129A50201360E2
:103BA000ADE0771E002C07D1002F06D03900280089
:103BB00000F072FD040000E001241F237A111F4071
:103BC0001E3BBB400399920052581A4201D0022377
:103BD0001C43019B31009B1B28000193FFF71EFE35
:103BE000029B02265F6800E00126002C00D181E0E4
:103BF000029BDB68022B0BD0032B0DD0012B77D15E
:103C0000A20775D5039A126814431C4207D16FE0CE
:103C10000123139A9B1A1393139B002B68D02C69D2
:103C2000A30004932B00A200143399180022944699
:103C30001A68501C02D001321A6021E0624604C3A7
:103C40009942F5D8AB689C4212DB6B680598591C09
:103C500000F04CF929002B6903909A1C92000C315A
:103C60000C3000F038F92900059800F077F9039D31
:103C70002B695A1C2A61012204339B00EB185A60FD
:103C80002B001433022E12D1029A01991268013AC4
:103C900091422BD14A111F2101989200014001202D
:103CA00004008C40D358234220D006001EE02A692D
:103CB00094420BDA01212800FFF7B0FD029B013787
:103CC0009B6801269F4200DD27E70FE01F24019A31
:103CD00001262240141E09D0049A9B18043B186840
:103CE00000F0D0F920210C1BA042E3DB202300E0F0
:103CF00010231E433000129B1D600A9B1F600DB0F5
:103D0000F0BD082370B520259A1A9200AD1A4368B9
:103D100006681C00AC40D340344304604360043068
:103D20008842F4D370BD30B503680C780133002CA1
:103D30000AD01A781500413D192D00D820320131E2
:103D4000A242F2D0002001E00360012030BDF0B5B6
:103D500089B000920A68009953119B00CB18029316
:103D60001F231A400790059202D0029B043302934E
:103D7000029B00251E1F37003400079B35601B681F
:103D8000069503930195039B013303931B780493DA
:103D9000002B3BD00498FFF775FD002822D1049B2F
:103DA000202B17D8019B069A9342ECDDBC4206D229
:103DB000072D04DC2A0039002000FFF7A2FF009B3A
:103DC00008259C42DFD90025019B271F3D600693F3
:103DD0003C00D8E7049B292B4BD1039B079A013366
:103DE000136013E0019B013501330193082D06DDBB
:103DF000009B9C42C7D900230125043C23600F226D
:103E0000236810401B0118432060BCE7019B002B76
:103E10002FD0BC4206D2072D04DC2A003900200036
:103E2000FFF76FFF009B9C420AD9043302CC1A1F94
:103E30001160A642F9D2002204C39E42FCD20DE0DA
:103E4000059B002B0AD02021059A029B891A01228A
:103E50005242CA40043B19680A401A603368002B7A
:103E600009D1009B9E4202D10123336003E0043E4E
:103E7000F4E7042000E0052009B0F0BD00487047D9
:103E80007800002070B50500080011000022064CE3
:103E900022601A0002F078FE431C03D12368002B35
:103EA00000D02B6070BDC046FC0B002010B5034B4A
:103EB00001001868FDF70CF810BDC0467000002026
:103EC000C9B28218904204D003788B4202D00130EC
:103ED000F8E700207047002310B59A4203D0CC5C6D
:103EE000C4540133F9E710BD7047704770B5466A96
:103EF00004000D00002E07D11020FFF7D7FF6062ED
:103F0000466086600660C660666AF368002B09D06A
:103F1000636AAA00DB689B18186800280ED0026844
:103F20001A6017E021220421200000F0D6FB636A0A
:103F3000F060DB68002BEBD100200EE001210E00C9
:103F4000AE40721D9200200000F0C7FB0028F3D0A5
:103F50004560866000230361C36070BD70B5456A2B
:103F600006000C00002D07D11020FFF79FFF7062A4
:103F7000456085600560C560002C07D0726A636883
:103F8000D2689B00D3181A6822601C6070BDF7B518
:103F9000070008000C000D691E000021019214307A
:103FA000019A0388013153439B190668360C564326
:103FB0001A0C9446B4446246160C120494469BB202
:103FC000634408C08D42EBDC002E1BD0A3689D42E9
:103FD00012DB63683800591CFFF788FF2100236952
:103FE00001909A1C92000C310C30FFF774FF2100F5
:103FF0003800FFF7B3FF019C2B1D9B00E318013530
:104000005E6025612000FEBDF7B5060018000C00BB
:10401000083009210193150000F0CEFD0123002195
:10402000834202DA5B000131FAE73000FFF75EFFFE
:10403000089B436101230361092D12DD230009332D
:104040001F00009364193B780100303B0A223000C6
:104050000137FFF79CFFA742F5D1009B5C19083C94
:1040600001E009250A342F00019B9F4209DA631BF6
:10407000DB5D0100303B0A223000FFF788FF01378B
:10408000F2E7FEBD00220300010C914201D10304BE
:104090001032190E01D108321B02190F01D104325E
:1040A0001B01990F01D102329B001000002B03DB92
:1040B00020205B0000D5501C70470722036810B514
:1040C00001001A400CD001240020234223D10222F7
:1040D000134203D0E34020000B601CE09B0818E073
:1040E00098B2002801D110221B0CD8B2002801D1AF
:1040F00008321B0A180701D104321B09980701D1A5
:1041000002329B08D80704D45B082020002B02D081
:10411000013210000B6010BD10B50C000121FFF73B
:10412000E5FE01234461036110BDF0B50B69140085
:10413000126989B00D00934201DA25000C002F6945
:104140002669AA68BB1969680193934200DD0131B1
:10415000FFF7CCFE0200BB1914329B00D3189C461B
:10416000002113000290634501D202C3FBE714351E
:10417000BF00EB191434B6000593A31903950793F8
:10418000079B9C4251D2208800281ED01500002693
:10419000039F08CF069504936B461B8A434319007F
:1041A0002B88CB1804999B19090C41432E68360CB7
:1041B00089191E0C89190E0C9BB209040B4308C502
:1041C000059BBB42E5D8069B5E6023681D0C1FD093
:1041D000002110001368039F04913E8801686E431C
:1041E000090C7118049E9BB289190E0433430360B5
:1041F00008CF86881B0C6B43090C9B195B18190CA4
:104200000491059906900430B942E6D806994B60AE
:1042100004340432B4E704235B429C4463461B68C5
:10422000002B05D1019B013B0193019B002BF2DC8C
:10423000029B019A18001A6109B0F0BD0323F7B57B
:10424000134005000E001400002B08D02349013B49
:104250009A00525800233100FFF799FE0600A31080
:10426000019338D06C6A002C07D11020FFF71EFE96
:104270006862446084600460C4606F6ABC68002C3B
:1042800010D117492800FFF747FF0023B86004004A
:10429000036007E0019B5B1001931CD0206800289D
:1042A00010D004000122019B1342F3D03100220000
:1042B0002800FFF73AFF070031002800FFF74EFE05
:1042C0003E00E7E7220021002800FFF72EFF002331
:1042D00020600360E5E73000FEBDC046A07700081F
:1042E00071020000F0B50C0017002369551185B06C
:1042F000EB180193013300934968A3680290009A78
:10430000934202DA01315B00F9E70298FFF7EEFD14
:1043100000230200060019001432AB4203DA9800B1
:1043200011500133F9E7EB43DB171D402300AD00CB
:1043300055192269143392009A1894461F22174087
:1043400014D00132D21B0392002219682800B94010
:104350000A4304C504CB0399CA409C45F5D8426082
:10436000002A07D0019B0233009303E004CB04C56D
:104370009C45FBD8009B0298013B33612100FFF76D
:10438000EDFD300005B0F0BD03690A6910B59B1A58
:104390000400181E12D1930014341431E218C91805
:1043A000043A043913680868834204D083429B416D
:1043B0000120184302E09442F2D3002010BDF0B572
:1043C0000C0085B00700110020001500FFF7DCFF8E
:1043D000061E07D101003800FFF788FD0123466162
:1043E000036155E000230193984204DA23002C0076
:1043F0001D000123019361683800FFF777FD019BE1
:1044000026692F00C3601434B300E318020002933E
:104410002B69002514379B00FB180393143208CC3A
:1044200069469C4608CF0432009363468B808B8894
:104430005D19009B9BB2EB1A65460193009B2D0C06
:10444000190C019B691A1D14131F9C466B464919D0
:104450009B880D1409040B4361460B60039BBB4210
:10446000DDD8029913008C420BD202CC8BB25B19BF
:104470001D14090C49190D149BB209040B4308C201
:10448000EFE7043B1A68002A01D1013EF9E7066113
:1044900005B0F0BD0F4B10B519400F4BC9180029DE
:1044A00002DD00220B0012E0494209150022002320
:1044B000132904DC802000030841030007E01439BD
:1044C00001201E2902DC1F24611A8840020010000E
:1044D000190010BD0000F07F0000C0FCF7B5060019
:1044E000036914369B00F3181D1F2C680F00200071
:1044F0000193FFF7C7FD20231B1A3B601C490A28C4
:1045000013DC0B2327001B1ADF4039439C460B00AA
:104510000021AE4202D20199083909681530844061
:104520006046C1400C4322001EE00027AE4202D28A
:10453000019D083D2F680B388446031E11D09C4016
:10454000202021433C00C01AC44021430B0000211D
:10455000B54201D9043D29686446C140A7400F43D4
:1045600001E021430B003A001000190003B0F0BD38
:104570000000F03FF7B51D000121089F1400FFF770
:10458000B5FC2B036D0006001B0B6D0D02D08022C5
:10459000520313430193002C18D068460094FFF790
:1045A0008CFD009C002809D0019B20211A00091ACB
:1045B0008A40C34022437261019300E07461019C10
:1045C000B461631E9C410134346107E001A8FFF728
:1045D00074FD0124019B346173612030002D06D0ED
:1045E0000B4BED1835232D183D60181A0BE0094BC5
:1045F000C018094B3860E3189B00F3185869FFF79F
:1046000041FD6401201A099B18603000FEBDC046C0
:10461000CDFBFFFFCEFBFFFFFFFFFF3FF0B585B0F7
:104620000E0002A90700FFF759FF04000D0030003B
:1046300003A900940195FFF751FF36693F69020015
:10464000BF1B7E01B446039F029E0B00F61B66440F
:10465000002E03DD36057119019101E036058B1B33
:104660000098019900F01CFF05B0F0BD130001395E
:1046700010B54911126901318900143392004118B3
:104680009A189A4202D910CB10C0FAE7002381424F
:1046900001D908C0FBE710BD30B50400026914342D
:1046A0004B119A420CDB0CDD1F22114009D09A00FD
:1046B000155901202A00CA408A4095420CD100E0D9
:1046C00013009B00E318A34205D9043B1A68002A93
:1046D000F9D0012000E0002030BD4A4370B5110040
:1046E0001400FCF7F5FB051E03D022000021FCF7A7
:1046F0009BFB280070BD0000F0B58E6885B00700F8
:104700000C00039201939E4243D890238A89DB00D8
:104710001A423ED003250969236801985B1A029367
:1047200063695D43EB0F5D19029B6D1001331B182C
:10473000AB4200D91D00530510D529003800FCF705
:10474000C7FB061E14D0029A2169FFF7C4FBA28999
:10475000194B134080221343A38112E02A00380032
:1047600000F065F9061E0CD121693800FCF764FBE6
:104770000C23402201203B60A38940421343A381C4
:1047800017E0029B2661F61826606561019EED1A0E
:10479000A560019BB34200D21E003200039920683D
:1047A00000F030F90020A3689B1BA36023689E19CA
:1047B000266005B0F0BDC0467FFBFFFFF0B59FB09F
:1047C000029005938B890F0016001B0610D50B690C
:1047D000002B0DD14021FCF77BFB386038610028AD
:1047E00004D10C23029A01381360D8E040237B6186
:1047F000002306AD6B6120336B761033AB7634004B
:104800002378002B03D1A31B049312D003E0252BA4
:10481000F9D00134F4E7A31B320039000298FFF706
:104820006BFF431C00D1B4E06A69049B9446634467
:104830006B612378002B00D1ABE0012200235242B0
:104840006A6002A95432521801342B60EB60AB60ED
:104850001370AB65534E217805223000FFF730FB13
:10486000002807D00123801B83402A6801341343AA
:104870002B60EFE72B68DA0604D55322202102A82B
:10488000121811701A0704D553222B2102A81218EE
:10489000117022782A2A03D0099B00200A210EE0F9
:1048A000059A111D12680591002A01DB099204E0A6
:1048B0005242EA60022213432B6001340BE022785B
:1048C000303A092A04D84B4301349B180120F6E7FB
:1048D000002800D0099323782E2B1ED163782A2B31
:1048E0000AD1059B02341A1D1B680592002B01DAC0
:1048F00001235B42079310E000230A201A000134D1
:104900006B6021783039092904D8424301345218A8
:104910000123F6E7002B00D00792234E21780322D3
:104920003000FFF7CDFA002806D04023801B8340DB
:104930002A68013413432B60217806221B48661C29
:104940002976FFF7BDFA002812D0194B002B06D1AB
:104950000722059B073393430833059314E005AB07
:1049600000933A00134B29000298FCF7A7FB07E0DD
:1049700005AB00933A000F4B29000298FCF75CFE50
:104980000390039B013304D06B69039A9B186B61FE
:1049900035E7BB890B985B0601D5012040421FB06B
:1049A000F0BDC046D8770008DE770008E27700083F
:1049B000BD100008F946000870B505000800110098
:1049C0000022064C22601A0002F0E6F8431C03D1D4
:1049D0002368002B00D02B6070BDC046FC0B00206C
:1049E000002330B59A420BD0013AC45CCD5CAC4296
:1049F00005D19A4202D00133002CF6D12500631B69
:104A0000180030BD10B5884202D98B18984201D3E6
:104A1000002305E09B1A013A08D3995C8154FAE718
:104A2000934203D0CC5CC4540133F9E710BDF8B510
:104A300006000C001500002904D11100FCF748FA0B
:104A4000040018E0002A03D1FCF7F6F92C0012E06C
:104A500000F013F885420ED929003000FCF738FA2F
:104A6000071E07D021002A00FFF735FA2100300089
:104A7000FCF7E2F93C002000F8BD0B1F1A68101F7C
:104A8000002A04DA891804390B68D01804387047F2
:104A900002B4714649084900095C49008E4402BCD1
:104AA0007047C046002243088B4274D303098B42EF
:104AB0005FD3030A8B4244D3030B8B4228D3030CEE
:104AC0008B420DD3FF22090212BA030C8B4202D390
:104AD0001212090265D0030B8B4219D300E0090AB8
:104AE000C30B8B4201D3CB03C01A5241830B8B42C1
:104AF00001D38B03C01A5241430B8B4201D34B03AA
:104B0000C01A5241030B8B4201D30B03C01A52410E
:104B1000C30A8B4201D3CB02C01A5241830A8B4293
:104B200001D38B02C01A5241430A8B4201D34B027C
:104B3000C01A5241030A8B4201D30B02C01A5241E0
:104B4000CDD2C3098B4201D3CB01C01A5241830994
:104B50008B4201D38B01C01A524143098B4201D3CE
:104B60004B01C01A524103098B4201D30B01C01AF9
:104B70005241C3088B4201D3CB00C01A5241830873
:104B80008B4201D38B00C01A524143088B4201D3A0
:104B90004B00C01A5241411A00D201465241104600
:104BA0007047FFE701B5002000F0F0F802BDC046F5
:104BB0000029F7D076E7704703460B437FD40022E5
:104BC00043088B4274D303098B425FD3030A8B42A1
:104BD00044D3030B8B4228D3030C8B420DD3FF220B
:104BE000090212BA030C8B4202D31212090265D0D9
:104BF000030B8B4219D300E0090AC30B8B4201D38C
:104C0000CB03C01A5241830B8B4201D38B03C01AD2
:104C10005241430B8B4201D34B03C01A5241030B49
:104C20008B4201D30B03C01A5241C30A8B4201D3FA
:104C3000CB02C01A5241830A8B4201D38B02C01AA5
:104C40005241430A8B4201D34B02C01A5241030A1C
:104C50008B4201D30B02C01A5241CDD2C3098B4201
:104C600001D3CB01C01A524183098B4201D38B017E
:104C7000C01A524143098B4201D34B01C01A524121
:104C800003098B4201D30B01C01A5241C3088B4266
:104C900001D3CB00C01A524183088B4201D38B0051
:104CA000C01A524143088B4201D34B00C01A5241F3
:104CB000411A00D201465241104670475DE0CA0FCA
:104CC00000D04942031000D34042534000229C468A
:104CD00003098B422DD3030A8B4212D3FC22890194
:104CE00012BA030A8B420CD3890192118B4208D36A
:104CF000890192118B4204D389013AD0921100E0CC
:104D00008909C3098B4201D3CB01C01A52418309DF
:104D10008B4201D38B01C01A524143098B4201D30C
:104D20004B01C01A524103098B4201D30B01C01A37
:104D30005241C3088B4201D3CB00C01A52418308B1
:104D40008B4201D38B00C01A5241D9D243088B4207
:104D500001D34B00C01A5241411A00D201466346AA
:104D600052415B10104601D34042002B00D549420E
:104D7000704763465B1000D3404201B5002000F04D
:104D800005F802BD0029F8D016E770477047C04605
:104D90008446101C62468C46191C634600E0C046DF
:104DA0001FB500F037FF002801D40021C8421FBD05
:104DB00010B500F08BFE4042013010BD10B500F080
:104DC00029FF002801DB002010BD012010BDC046D6
:104DD00010B500F01FFF002801DD002010BD0120EC
:104DE00010BDC04610B500F0B1FE002801DC002067
:104DF00010BD012010BDC04610B500F0A7FE002870
:104E000001DA002010BD012010BDC04670B500229F
:104E10000C4B04000D00FFF7EFFF002804D1200029
:104E2000290001F04FFD70BD064B00222000290033
:104E300001F0D4F901F046FD80231B069C46604436
:104E4000F1E7C0460000E041F8B556465F464D46E2
:104E50004446F0B40F00FD0FAA4609037C002E0063
:104E60005F00450F490A7F0D2943C5001803BC4662
:104E7000400A570F640DDB0F3843D2009A4500D12A
:104E8000AAE06646A61B002E00DCFFE06346002B6E
:104E900039D10300134300D0D9E06B0709D00F23A9
:104EA0002B40042B05D02B1DAB42AD416D4249195F
:104EB0001D000B0200D482E0CA4B01349C4200D199
:104EC000FEE00A005646C84BED081A40500764053C
:104ED00052020543120B640D002112030B0D1B053A
:104EE0006405120B1A436308C04CF60714401C43B8
:104EF000640064083443280021003CBC9046994675
:104F0000A246AB46F8BDB74B9C42C6D080231B04DB
:104F10001843382E00DDEBE01F2E00DD1EE12023BC
:104F20009B1B9C4603006746BB40984613004746C0
:104F3000F3403B436746BA40571EBA411343020051
:104F4000F240EB1A9D42B6411D008A1A7642911B2F
:104F50000B0231D54A02560A002E00D1B4E03000CF
:104F600001F0ECFD0300083B1F2B00DDB5E0202223
:104F70002900D21AD1409E400A009D4032439C42F3
:104F800000DDB1E01C1B631C1F2B00DDD5E02021E0
:104F900014002800C91A8C40D8408D400443DA40E0
:104FA000681E854111002543002476E741463143C0
:104FB00000D134E2310045466B0700D06FE756461A
:104FC0004807ED08C9080543864B9C4235D00A03C3
:104FD0006405120B640D7FE76346E31A9B46002BC2
:104FE00000DC8BE06746002F3CD07E4FBC4200D1F6
:104FF00053E780273F0438435B46382B00DCF7E05B
:105000000243501E82410020D2B253194218AB42D3
:1050100089411D00494289180B02CDD5714B0134DD
:105020009C4200D13DE101206F4A6B080A402840B4
:105030001843D507054351082FE72B000B4300D138
:10504000CBE180231B030B431A03120B44E7013E01
:10505000002E6DD1AE1AB5429B41091A5B42C91AA6
:10506000350075E70700174300D116E701235B42BF
:105070009C46E3445B46002B00D0E0E0AA18AA421D
:105080009B4109185B4259181500C5E7002E75D1E0
:10509000661C7605760D012E00DCF3E0AE1AB046F4
:1050A0004545BF410E1A7F42F61B370200D48FE000
:1050B000551BAA42B641411A76428E1B9A464BE7CF
:1050C00056460022002507E7280001F037FD203072
:1050D0000300083B1F2B00DC49E72A0028388240E8
:1050E00000259C4200DC4DE73F49E41A1140D4E61C
:1050F0000243501E8241D3B2002222E7002B00D08F
:10510000F3E0631C9C465B055B0D012B00DC9FE01C
:10511000344B9C4500D1C3E0AA180918AA4280412B
:1051200040424118CD075208154349086446B4E689
:105130002C4B9C4200D0ECE6AFE611001F3CE14056
:105140000C00202B00D17FE04021CB1A9A40154360
:105150006A1E95410021254300242DE733000700F6
:10516000203BDF403B00202E70D04027BE1BB040CC
:105170000243501E824113430022E2E6002C4FD02E
:10518000184CA44500D1ABE080242404764221438E
:10519000382E00DDDFE01F2E00DD43E12027BC1BA1
:1051A000A1460C004F46BC40A0462C004746F440A8
:1051B0003C434F46BD406F1EBD41F1402C43151B83
:1051C000AA429241411A5242891A64469A46BFE65F
:1051D00041464546314300D0BEE600260024002566
:1051E000F2E6C046FF070000FFFF7FFFFFFF0F80D2
:1051F0001F2B59DC2027FF1ABC46070063469F403F
:105200005B46B9461700DF40B8464F4643461F434A
:1052100063469A40531E9A415B463A43D840F4E6AF
:105220000C002C435CD0F643002E55D1551BAA42EE
:10523000A441411A6442091B9A46644688E6964F87
:10524000BC4200D0D8E628E6002280E700208FE7A5
:105250000B002B43002C00D0C2E0002B00D101E159
:105260000300134300D118E6AB18AB42B64109184E
:10527000764271180A0200D409E1884A1D001140E3
:1052800064460AE6002C5BD10E002E4300D08AE073
:105290000100114300D1C2E0010015009A46FCE56F
:1052A0006446002100258FE620235B429C46DC44B7
:1052B00063460700DF405B46BC46202B00D1ACE0D4
:1052C00040235F46DB1B98400243501E82416346E9
:1052D00013431A00002098E66F4CA44500D057E70E
:1052E0000100150064469A46D7E5002C39D10C0020
:1052F0002C436ED0DB43002B1AD0674CA44568D0FA
:10530000382B00DDA4E01F2B00DDAEE020240F00D1
:10531000E41AA740B9462F00DF40B846A3464F46DF
:10532000444627435C46A5406C1EA541D9403D43F9
:10533000AD1895429B4109185B42591864466BE6CB
:105340000C002C4315D1010011437BD00100150046
:105350009A46514CA1E50D43691E8D410021ECB2E6
:105360002DE74D4CA44534D0802424045B422143D6
:10537000C6E7040014434ED0ED084C072C438025AB
:10538000C9082D03294208D0C6082E4205D1D208EB
:10539000410711430C009A463100620FC900E50035
:1053A00011433D4C79E50600164300D175E5AE1A70
:1053B000B0464545BF410E1A7F42F61B370200D466
:1053C000F4E5551BAA42B641411A7642891B9A461A
:1053D00063E50100150064465FE5002200257BE5DA
:1053E000002B3BD00300134315D0ED084B072B4394
:1053F0008025C9082D03294207D0C4082C4204D1B6
:1054000041070B002100D2081343C9005A0F114372
:10541000DD00214C41E5204C3FE5002054E700260B
:105420000025D1E534000F00203CE7403C00202E51
:105430002BD04027BE1BB1400D43691E8D4100217A
:105440002C43BCE6802100260903134C0025BBE554
:105450000D43691E8D410021EDB269E70100150081
:105460000D4C1AE50100150017E51C000F00203C4B
:10547000E7403C00202B0CD04027FB1A99400D43FD
:10548000691E8D410021254352E70021D4E71D000C
:1054900092E50021F3E7C046FF070000FFFF7FFF12
:1054A000F0B556464D4644465F46F0B41D000E0327
:1054B0004C00CB0F87B0070092468146360B640D37
:1054C00098466AD06D4B9C4235D08022430F12041F
:1054D0001343F6001E43C3009946694B00279C46C0
:1054E0000023644402932B0368001B0BED0F51460D
:1054F0009B46400D009500D178E0604B98426CD0FF
:105500005B46DA004B0F802109040B4313439B4693
:105510005346D9005A4B9C46002360444246201A09
:105520006A40924601901F430F2F00D9B0E05548C2
:10553000BF00C0598746374300D088E00023994612
:105540000233082700260293CDE74346B346494677
:105550000093029B009A9246022B00D0BFE10021EB
:1055600053460122002689461A40444B0021360347
:105570000C0D2405360B2643434C1B0526401E43C9
:105580007600D207760816434846310007B03CBC87
:1055900090469946A246AB46F0BD330003434FD038
:1055A000002E00D1BCE1300001F0C8FA03000B3B33
:1055B0001C2B00DDADE11D220100D31A08393A0091
:1055C0008F408E40DA40B9461643304B00279C4648
:1055D000002360444442029385E753465A461343EE
:1055E0002CD1002300219B46023397E70B4320D0A8
:1055F0005B46002B00D19EE1584601F09FFA030064
:105600000B3B1C2B00DD8FE102005946083A91400C
:105610008B461D21CB1A5146D9400B0059460B43EE
:1056200051469B469140194B9C46604440420023A2
:1056300074E7002300219B4601336FE703236DE7E6
:105640000023994601330427002602934BE70323E6
:105650000C27029347E70122D51A382D00DCB0E170
:1056600053461A4000210023002689467EE7002386
:105670008026994600223603004B77E7FF0700009B
:1056800001FCFFFFEC770008FFFF0F80F303000031
:105690005E4500D972E100D16DE1019B4D46013BB1
:1056A00001930023340002935B461E020B0E1E433F
:1056B0000B020393330C994633041B0C494620001C
:1056C0000093FFF7EFF9009B37004343060049467C
:1056D00020009846FFF76CFA2C0C09040C43A045F7
:1056E00009D9E419731EA74200D95CE1A04500D88E
:1056F00059E1023EE4194346E41A49462000FFF707
:10570000D1F90300009A80465343494620009B4646
:10571000FFF74EFA2A040904120C0A4393450DD9E7
:105720004346D219013B974200D93AE1934500D84C
:1057300037E102235B429C46D219E0445B46D21A11
:105740004346360433439B460399180C0B0C1D004B
:10575000059309045B46090C0C001B041B0C444315
:10576000049159436B4368431B190D0CEB189C4281
:1057700003D980246402A44660441C0C09041B0461
:10578000090C20185D18824200D2DEE000D1D7E07B
:10579000161A029B9C465D1BAC459B415B42F61A68
:1057A000B74200D106E149463000FFF77BF9009B84
:1057B00004004343494630009846FFF7F9F92E0CA0
:1057C00009040E43B04509D9F619631EB74200D942
:1057D000F3E0B04500D8F0E0023CF6194346F31A76
:1057E000494618000293FFF75DF9009B060043430A
:1057F000494602989846FFF7DBF92D0409042D0C61
:105800000D43A84509D9ED19731EAF4200D9D6E062
:10581000A84500D8D3E0023EED19240421004346F8
:105820003143049E059A3000ED1A0B040C0C1B0C3E
:1058300058436643534354439A19030C9B189E42A2
:1058400003D980225202944664441A0C00041B04BB
:10585000000C14191B18A54250D34DD00123194335
:10586000964A019B94466344002B00DCF3E64A070A
:1058700009D00F220A40042A05D00A1D8A42894114
:1058800049428B4411005A46D20108D55A468C4BE6
:105890001A4093468022D2009446019B6344894A71
:1058A000934200DD5BE65A46C9085007084356029A
:1058B000514601225B058146360B5B0D0A4055E6D9
:1058C00080231B031E4211D05A461A420ED15E4657
:1058D0001E433603360B2A0089467B4B46E6032BD4
:1058E00000D1E1E0012BBBD11A40BBE61E433603D9
:1058F000360B4246744B39E6002BB1D07D194A1E57
:10590000AF4252D91100A542A8D1039A9A42A5D11B
:10591000A6E703003E00283B9E400023994654E63C
:1059200001F00CF9203041E603005246283B9A4032
:105930000021934677E6504601F000F920305EE6FC
:10594000029B0026AB4200D323E7039E0299B44694
:1059500061448846B045B6415B467642F619B218B6
:10596000013B0291974213D290424FD800D18EE072
:10597000161A9B460DE7894500D28EE674084B4601
:10598000F60735005B081D434B46DB0702938BE6A9
:105990009742EDD10399029CA142E5D93E1A9B465C
:1059A000F7E69846CAE61E00A5E6AC423ED874D09B
:1059B000110053E70121494252E71C000EE71E0087
:1059C0002BE71F2D3CDC20230A0058465B1B984028
:1059D000EA4099400243481E81415E461143EE4031
:1059E0004B0709D00F230B40042B05D00B00191DCA
:1059F00099429B415B42F61833023CD55346012243
:105A000000211A40002601238946AFE502235B42AC
:105A10009C46039CE344A446029B63449846A045ED
:105A2000B6417642F6190293B218B1E603988A1E7F
:105A300041008142B6417642F619AD19039161E702
:105A40001F225242D31A5A46DA401300202D29D081
:105A500040225846551BA8400143481E814107205B
:105A60000B4318400026002809D00F2200261A40B8
:105A70001900042ABBD10B0070077602360BDB0835
:105A800003439946012253461A4000236EE50299CA
:105A90008D42BBD89B4600267BE603989842C5D32F
:105AA000110032E70020D7E780265B4636031E430D
:105AB0003603360B009A8946034B57E5FF03000077
:105AC000FFFFFFFEFE070000FF070000F0B55F4686
:105AD00056464D464446F0B41F035C00DB0F9A4621
